{
  "_format": "hh-sol-artifact-1",
  "contractName": "Voting",
  "sourceName": "contracts/Voting.sol",
  "abi": [
    {
      "inputs": [
        {
          "internalType": "string",
          "name": "tokenName",
          "type": "string"
        },
        {
          "internalType": "string",
          "name": "tokenSymbol",
          "type": "string"
        }
      ],
      "stateMutability": "nonpayable",
      "type": "constructor"
    },
    {
      "anonymous": false,
      "inputs": [
        {
          "indexed": true,
          "internalType": "address",
          "name": "owner",
          "type": "address"
        },
        {
          "indexed": true,
          "internalType": "address",
          "name": "spender",
          "type": "address"
        },
        {
          "indexed": false,
          "internalType": "uint256",
          "name": "value",
          "type": "uint256"
        }
      ],
      "name": "Approval",
      "type": "event"
    },
    {
      "anonymous": false,
      "inputs": [
        {
          "indexed": true,
          "internalType": "address",
          "name": "previousOwner",
          "type": "address"
        },
        {
          "indexed": true,
          "internalType": "address",
          "name": "newOwner",
          "type": "address"
        }
      ],
      "name": "OwnershipTransferred",
      "type": "event"
    },
    {
      "anonymous": false,
      "inputs": [
        {
          "indexed": true,
          "internalType": "address",
          "name": "from",
          "type": "address"
        },
        {
          "indexed": true,
          "internalType": "address",
          "name": "to",
          "type": "address"
        },
        {
          "indexed": false,
          "internalType": "uint256",
          "name": "value",
          "type": "uint256"
        }
      ],
      "name": "Transfer",
      "type": "event"
    },
    {
      "anonymous": false,
      "inputs": [
        {
          "indexed": false,
          "internalType": "uint256",
          "name": "_winningNumber",
          "type": "uint256"
        },
        {
          "indexed": false,
          "internalType": "address",
          "name": "_voter",
          "type": "address"
        },
        {
          "indexed": false,
          "internalType": "string",
          "name": "_lastProposal",
          "type": "string"
        }
      ],
      "name": "getWinning",
      "type": "event"
    },
    {
      "anonymous": false,
      "inputs": [
        {
          "indexed": false,
          "internalType": "uint256",
          "name": "_amount",
          "type": "uint256"
        },
        {
          "indexed": false,
          "internalType": "uint256",
          "name": "_balanceOf",
          "type": "uint256"
        }
      ],
      "name": "isMint",
      "type": "event"
    },
    {
      "anonymous": false,
      "inputs": [
        {
          "indexed": false,
          "internalType": "uint256",
          "name": "_proposalID",
          "type": "uint256"
        },
        {
          "indexed": false,
          "internalType": "string",
          "name": "_proposal",
          "type": "string"
        }
      ],
      "name": "isProposal",
      "type": "event"
    },
    {
      "anonymous": false,
      "inputs": [
        {
          "indexed": false,
          "internalType": "address",
          "name": "_address",
          "type": "address"
        },
        {
          "indexed": false,
          "internalType": "bool",
          "name": "_isRegistering",
          "type": "bool"
        },
        {
          "indexed": false,
          "internalType": "bool",
          "name": "_hasVoted",
          "type": "bool"
        },
        {
          "indexed": false,
          "internalType": "uint256",
          "name": "_votedProposalId",
          "type": "uint256"
        }
      ],
      "name": "isRegistering",
      "type": "event"
    },
    {
      "anonymous": false,
      "inputs": [
        {
          "indexed": false,
          "internalType": "uint256",
          "name": "_step",
          "type": "uint256"
        }
      ],
      "name": "isStep",
      "type": "event"
    },
    {
      "anonymous": false,
      "inputs": [
        {
          "indexed": false,
          "internalType": "uint256",
          "name": "_proposalID",
          "type": "uint256"
        },
        {
          "indexed": false,
          "internalType": "address",
          "name": "_address",
          "type": "address"
        }
      ],
      "name": "isVoted",
      "type": "event"
    },
    {
      "anonymous": false,
      "inputs": [
        {
          "indexed": false,
          "internalType": "uint256",
          "name": "_proposalID",
          "type": "uint256"
        },
        {
          "indexed": false,
          "internalType": "string",
          "name": "_proposalDescription",
          "type": "string"
        },
        {
          "indexed": false,
          "internalType": "uint256",
          "name": "_voteNumber",
          "type": "uint256"
        },
        {
          "indexed": false,
          "internalType": "address",
          "name": "_voter",
          "type": "address"
        }
      ],
      "name": "isWinning",
      "type": "event"
    },
    {
      "inputs": [],
      "name": "Owner",
      "outputs": [
        {
          "internalType": "address",
          "name": "",
          "type": "address"
        }
      ],
      "stateMutability": "view",
      "type": "function"
    },
    {
      "inputs": [],
      "name": "RegisteringVoters",
      "outputs": [],
      "stateMutability": "nonpayable",
      "type": "function"
    },
    {
      "inputs": [
        {
          "internalType": "string",
          "name": "_proposal",
          "type": "string"
        }
      ],
      "name": "addProposal",
      "outputs": [],
      "stateMutability": "nonpayable",
      "type": "function"
    },
    {
      "inputs": [
        {
          "internalType": "uint256",
          "name": "",
          "type": "uint256"
        }
      ],
      "name": "addressVoters",
      "outputs": [
        {
          "internalType": "address",
          "name": "",
          "type": "address"
        }
      ],
      "stateMutability": "view",
      "type": "function"
    },
    {
      "inputs": [
        {
          "internalType": "address",
          "name": "owner",
          "type": "address"
        },
        {
          "internalType": "address",
          "name": "spender",
          "type": "address"
        }
      ],
      "name": "allowance",
      "outputs": [
        {
          "internalType": "uint256",
          "name": "",
          "type": "uint256"
        }
      ],
      "stateMutability": "view",
      "type": "function"
    },
    {
      "inputs": [
        {
          "internalType": "address",
          "name": "spender",
          "type": "address"
        },
        {
          "internalType": "uint256",
          "name": "amount",
          "type": "uint256"
        }
      ],
      "name": "approve",
      "outputs": [
        {
          "internalType": "bool",
          "name": "",
          "type": "bool"
        }
      ],
      "stateMutability": "nonpayable",
      "type": "function"
    },
    {
      "inputs": [
        {
          "internalType": "address",
          "name": "account",
          "type": "address"
        }
      ],
      "name": "balanceOf",
      "outputs": [
        {
          "internalType": "uint256",
          "name": "",
          "type": "uint256"
        }
      ],
      "stateMutability": "view",
      "type": "function"
    },
    {
      "inputs": [],
      "name": "decimals",
      "outputs": [
        {
          "internalType": "uint8",
          "name": "",
          "type": "uint8"
        }
      ],
      "stateMutability": "view",
      "type": "function"
    },
    {
      "inputs": [
        {
          "internalType": "address",
          "name": "spender",
          "type": "address"
        },
        {
          "internalType": "uint256",
          "name": "subtractedValue",
          "type": "uint256"
        }
      ],
      "name": "decreaseAllowance",
      "outputs": [
        {
          "internalType": "bool",
          "name": "",
          "type": "bool"
        }
      ],
      "stateMutability": "nonpayable",
      "type": "function"
    },
    {
      "inputs": [],
      "name": "getAllAddress",
      "outputs": [
        {
          "internalType": "address[]",
          "name": "",
          "type": "address[]"
        }
      ],
      "stateMutability": "view",
      "type": "function"
    },
    {
      "inputs": [],
      "name": "getLastProposalWinning",
      "outputs": [
        {
          "internalType": "uint256",
          "name": "",
          "type": "uint256"
        },
        {
          "internalType": "address",
          "name": "",
          "type": "address"
        },
        {
          "internalType": "string",
          "name": "",
          "type": "string"
        },
        {
          "internalType": "uint256",
          "name": "",
          "type": "uint256"
        }
      ],
      "stateMutability": "view",
      "type": "function"
    },
    {
      "inputs": [
        {
          "internalType": "uint256",
          "name": "_proposalID",
          "type": "uint256"
        }
      ],
      "name": "getProposalPerID",
      "outputs": [
        {
          "internalType": "string",
          "name": "",
          "type": "string"
        }
      ],
      "stateMutability": "view",
      "type": "function"
    },
    {
      "inputs": [],
      "name": "getProposalsArray",
      "outputs": [
        {
          "components": [
            {
              "internalType": "string",
              "name": "description",
              "type": "string"
            },
            {
              "internalType": "uint256",
              "name": "voteCount",
              "type": "uint256"
            },
            {
              "internalType": "address",
              "name": "voter",
              "type": "address"
            }
          ],
          "internalType": "struct Voting.Proposal[]",
          "name": "",
          "type": "tuple[]"
        }
      ],
      "stateMutability": "view",
      "type": "function"
    },
    {
      "inputs": [
        {
          "internalType": "address",
          "name": "_voters",
          "type": "address"
        }
      ],
      "name": "getRegisteringVoters",
      "outputs": [
        {
          "internalType": "bool",
          "name": "",
          "type": "bool"
        }
      ],
      "stateMutability": "view",
      "type": "function"
    },
    {
      "inputs": [],
      "name": "getSessionStep",
      "outputs": [
        {
          "internalType": "uint256",
          "name": "",
          "type": "uint256"
        }
      ],
      "stateMutability": "view",
      "type": "function"
    },
    {
      "inputs": [
        {
          "internalType": "address",
          "name": "_address",
          "type": "address"
        }
      ],
      "name": "getVotersHasVoted",
      "outputs": [
        {
          "internalType": "bool",
          "name": "",
          "type": "bool"
        }
      ],
      "stateMutability": "view",
      "type": "function"
    },
    {
      "inputs": [
        {
          "internalType": "address",
          "name": "spender",
          "type": "address"
        },
        {
          "internalType": "uint256",
          "name": "addedValue",
          "type": "uint256"
        }
      ],
      "name": "increaseAllowance",
      "outputs": [
        {
          "internalType": "bool",
          "name": "",
          "type": "bool"
        }
      ],
      "stateMutability": "nonpayable",
      "type": "function"
    },
    {
      "inputs": [],
      "name": "name",
      "outputs": [
        {
          "internalType": "string",
          "name": "",
          "type": "string"
        }
      ],
      "stateMutability": "view",
      "type": "function"
    },
    {
      "inputs": [],
      "name": "owner",
      "outputs": [
        {
          "internalType": "address",
          "name": "",
          "type": "address"
        }
      ],
      "stateMutability": "view",
      "type": "function"
    },
    {
      "inputs": [
        {
          "internalType": "uint256",
          "name": "",
          "type": "uint256"
        }
      ],
      "name": "proposals",
      "outputs": [
        {
          "internalType": "string",
          "name": "description",
          "type": "string"
        },
        {
          "internalType": "uint256",
          "name": "voteCount",
          "type": "uint256"
        },
        {
          "internalType": "address",
          "name": "voter",
          "type": "address"
        }
      ],
      "stateMutability": "view",
      "type": "function"
    },
    {
      "inputs": [
        {
          "internalType": "uint256",
          "name": "",
          "type": "uint256"
        }
      ],
      "name": "proposalsWinning",
      "outputs": [
        {
          "internalType": "string",
          "name": "description",
          "type": "string"
        },
        {
          "internalType": "uint256",
          "name": "voteCount",
          "type": "uint256"
        },
        {
          "internalType": "address",
          "name": "voter",
          "type": "address"
        }
      ],
      "stateMutability": "view",
      "type": "function"
    },
    {
      "inputs": [],
      "name": "renounceOwnership",
      "outputs": [],
      "stateMutability": "nonpayable",
      "type": "function"
    },
    {
      "inputs": [],
      "name": "sessionStep",
      "outputs": [
        {
          "internalType": "enum Voting.Step",
          "name": "",
          "type": "uint8"
        }
      ],
      "stateMutability": "view",
      "type": "function"
    },
    {
      "inputs": [
        {
          "internalType": "uint256",
          "name": "_amount",
          "type": "uint256"
        }
      ],
      "name": "setReward",
      "outputs": [],
      "stateMutability": "nonpayable",
      "type": "function"
    },
    {
      "inputs": [
        {
          "internalType": "uint256",
          "name": "_sessionStep",
          "type": "uint256"
        }
      ],
      "name": "setSessionStep",
      "outputs": [
        {
          "internalType": "address",
          "name": "",
          "type": "address"
        }
      ],
      "stateMutability": "nonpayable",
      "type": "function"
    },
    {
      "inputs": [],
      "name": "symbol",
      "outputs": [
        {
          "internalType": "string",
          "name": "",
          "type": "string"
        }
      ],
      "stateMutability": "view",
      "type": "function"
    },
    {
      "inputs": [],
      "name": "totalSupply",
      "outputs": [
        {
          "internalType": "uint256",
          "name": "",
          "type": "uint256"
        }
      ],
      "stateMutability": "view",
      "type": "function"
    },
    {
      "inputs": [
        {
          "internalType": "address",
          "name": "to",
          "type": "address"
        },
        {
          "internalType": "uint256",
          "name": "amount",
          "type": "uint256"
        }
      ],
      "name": "transfer",
      "outputs": [
        {
          "internalType": "bool",
          "name": "",
          "type": "bool"
        }
      ],
      "stateMutability": "nonpayable",
      "type": "function"
    },
    {
      "inputs": [
        {
          "internalType": "address",
          "name": "from",
          "type": "address"
        },
        {
          "internalType": "address",
          "name": "to",
          "type": "address"
        },
        {
          "internalType": "uint256",
          "name": "amount",
          "type": "uint256"
        }
      ],
      "name": "transferFrom",
      "outputs": [
        {
          "internalType": "bool",
          "name": "",
          "type": "bool"
        }
      ],
      "stateMutability": "nonpayable",
      "type": "function"
    },
    {
      "inputs": [
        {
          "internalType": "address",
          "name": "newOwner",
          "type": "address"
        }
      ],
      "name": "transferOwnership",
      "outputs": [],
      "stateMutability": "nonpayable",
      "type": "function"
    },
    {
      "inputs": [
        {
          "internalType": "uint256",
          "name": "_proposalID",
          "type": "uint256"
        }
      ],
      "name": "voteProposal",
      "outputs": [],
      "stateMutability": "nonpayable",
      "type": "function"
    },
    {
      "inputs": [
        {
          "internalType": "address",
          "name": "",
          "type": "address"
        }
      ],
      "name": "voters",
      "outputs": [
        {
          "internalType": "bool",
          "name": "isRegistered",
          "type": "bool"
        },
        {
          "internalType": "bool",
          "name": "hasVoted",
          "type": "bool"
        },
        {
          "internalType": "uint256",
          "name": "votedProposalId",
          "type": "uint256"
        }
      ],
      "stateMutability": "view",
      "type": "function"
    },
    {
      "inputs": [],
      "name": "winningProposal",
      "outputs": [],
      "stateMutability": "nonpayable",
      "type": "function"
    },
    {
      "inputs": [
        {
          "internalType": "uint256",
          "name": "",
          "type": "uint256"
        }
      ],
      "name": "winnings",
      "outputs": [
        {
          "internalType": "uint256",
          "name": "",
          "type": "uint256"
        }
      ],
      "stateMutability": "view",
      "type": "function"
    }
  ],
  "bytecode": "0x6080604052674563918244f400006007553480156200001d57600080fd5b50604051620026633803806200266383398101604081905262000040916200019d565b81816200004d3362000088565b60046200005b838262000296565b5060056200006a828262000296565b5050600680546001600160a01b031916331790555062000362915050565b600080546001600160a01b038381166001600160a01b0319831681178455604051919092169283917f8be0079c531659141344cd1fd0a4f28419497f9722a3daafe3b4186f6b6457e09190a35050565b634e487b7160e01b600052604160045260246000fd5b600082601f8301126200010057600080fd5b81516001600160401b03808211156200011d576200011d620000d8565b604051601f8301601f19908116603f01168101908282118183101715620001485762000148620000d8565b816040528381526020925086838588010111156200016557600080fd5b600091505b838210156200018957858201830151818301840152908201906200016a565b600093810190920192909252949350505050565b60008060408385031215620001b157600080fd5b82516001600160401b0380821115620001c957600080fd5b620001d786838701620000ee565b93506020850151915080821115620001ee57600080fd5b50620001fd85828601620000ee565b9150509250929050565b600181811c908216806200021c57607f821691505b6020821081036200023d57634e487b7160e01b600052602260045260246000fd5b50919050565b601f8211156200029157600081815260208120601f850160051c810160208610156200026c5750805b601f850160051c820191505b818110156200028d5782815560010162000278565b5050505b505050565b81516001600160401b03811115620002b257620002b2620000d8565b620002ca81620002c3845462000207565b8462000243565b602080601f831160018114620003025760008415620002e95750858301515b600019600386901b1c1916600185901b1785556200028d565b600085815260208120601f198616915b82811015620003335788860151825594840194600190910190840162000312565b5085821015620003525787850151600019600388901b60f8161c191681555b5050505050600190811b01905550565b6122f180620003726000396000f3fe608060405234801561001057600080fd5b50600436106102065760003560e01c80637559020b1161011a578063a9059cbb116100ad578063dd62ed3e1161007c578063dd62ed3e146104ca578063e6eccba2146104dd578063e841b04b146104f2578063f2fde38b1461050c578063f9396a361461051f57600080fd5b8063a9059cbb14610489578063b4a99a4e1461049c578063b5fa78ba146104af578063bbc2fcc9146104c257600080fd5b80638da5cb5b116100e95780638da5cb5b1461040c57806395d89b411461041d578063a3ec138d14610425578063a457c2d71461047657600080fd5b80637559020b1461038f5780637a3f32c5146103ba5780637ab64916146103cd578063807896d5146103f957600080fd5b80632acc52941161019d5780635d57ab281161016c5780635d57ab281461032e578063609ff1bd1461034157806370a0823114610349578063715018a614610372578063715b208b1461037a57600080fd5b80632acc5294146102e15780632fdae3c5146102f9578063313ce5671461030c578063395093511461031b57600080fd5b806318160ddd116101d957806318160ddd146102785780631c7976091461028a57806323b872dd146102bb578063293be456146102ce57600080fd5b8063013cf08b1461020b57806306fdde0314610236578063095ea7b31461024b5780631285edf71461026e575b600080fd5b61021e610219366004611be0565b610532565b60405161022d93929190611c3f565b60405180910390f35b61023e6105fe565b60405161022d9190611c72565b61025e610259366004611ca3565b610690565b604051901515815260200161022d565b6102766106aa565b005b6003545b60405190815260200161022d565b61025e610298366004611ccd565b6001600160a01b0316600090815260086020526040902054610100900460ff1690565b61025e6102c9366004611ce8565b610861565b6102766102dc366004611be0565b610885565b6102e9610892565b60405161022d9493929190611d24565b610276610307366004611d75565b610961565b6040516012815260200161022d565b61025e610329366004611ca3565b610b09565b61027c61033c366004611be0565b610b2b565b610276610b4c565b61027c610357366004611ccd565b6001600160a01b031660009081526001602052604090205490565b610276610d26565b610382610d3a565b60405161022d9190611e26565b6103a261039d366004611be0565b610d9b565b6040516001600160a01b03909116815260200161022d565b61021e6103c8366004611be0565b610dc5565b61025e6103db366004611ccd565b6001600160a01b031660009081526008602052604090205460ff1690565b610276610407366004611be0565b610de0565b6000546001600160a01b03166103a2565b61023e610ff7565b610459610433366004611ccd565b6008602052600090815260409020805460019091015460ff808316926101009004169083565b60408051931515845291151560208401529082015260600161022d565b61025e610484366004611ca3565b611006565b61025e610497366004611ca3565b611081565b6006546103a2906001600160a01b031681565b6103a26104bd366004611be0565b61108f565b61027c611161565b61027c6104d8366004611e73565b611180565b6104e56111ab565b60405161022d9190611ea6565b600a546104ff9060ff1681565b60405161022d9190611f46565b61027661051a366004611ccd565b6112bf565b61023e61052d366004611be0565b611338565b600c818154811061054257600080fd5b906000526020600020906003020160009150905080600001805461056590611f6e565b80601f016020809104026020016040519081016040528092919081815260200182805461059190611f6e565b80156105de5780601f106105b3576101008083540402835291602001916105de565b820191906000526020600020905b8154815290600101906020018083116105c157829003601f168201915b5050505060018301546002909301549192916001600160a01b0316905083565b60606004805461060d90611f6e565b80601f016020809104026020016040519081016040528092919081815260200182805461063990611f6e565b80156106865780601f1061065b57610100808354040283529160200191610686565b820191906000526020600020905b81548152906001019060200180831161066957829003601f168201915b5050505050905090565b60003361069e8185856113ee565b60019150505b92915050565b6000600a5460ff1660038111156106c3576106c3611f30565b146107245760405162461bcd60e51b815260206004820152602660248201527f7265676973746572566f746572732073657373696f6e20686173206e6f7420736044820152651d185c9d195960d21b60648201526084015b60405180910390fd5b3360009081526008602052604090205460ff16156107845760405162461bcd60e51b815260206004820152601a60248201527f796f752061726520616c72656164792072656769737465726564000000000000604482015260640161071b565b6040805160608082018352600180835260006020808501828152858701838152338085526008845288852097518854935161ffff1990941690151561ff00191617610100931515939093029290921787555195840195909555600b805480850182559083527f0175b7a638427703f0dbe7bb9bbf987a2551717b34e79f33b5b1008d1fa01db90180546001600160a01b0319168617905585519485528401919091529282018390528101919091527f6395294acccd9a4374dd58fdb83a4ae270c99c79142f34be8432b62c511a829e9060800160405180910390a1565b60003361086f858285611512565b61087a85858561158c565b506001949350505050565b61088d61175a565b600755565b600d54600081815260096020526040812060028101546001820154825493948594606094869492936001600160a01b0390931692909182906108d390611f6e565b80601f01602080910402602001604051908101604052809291908181526020018280546108ff90611f6e565b801561094c5780601f106109215761010080835404028352916020019161094c565b820191906000526020600020905b81548152906001019060200180831161092f57829003601f168201915b50505050509150935093509350935090919293565b6001600a5460ff16600381111561097a5761097a611f30565b146109d55760405162461bcd60e51b815260206004820152602560248201527f50726f706f73616c73526567697374726174696f6e20686173206e6f74207374604482015264185c9d195960da1b606482015260840161071b565b3360009081526008602052604090205460ff16610a345760405162461bcd60e51b815260206004820152601760248201527f796f7520617265206e6f74652072656769737465726564000000000000000000604482015260640161071b565b604080516060810182528281526000602082018190523392820192909252600c8054600181018255925280519091829160039091027fdf6966c971051c3d54ec59162606531493a51404a002842f56009d7e5cf4a8c701908190610a989082611ff6565b5060208201516001820155604091820151600290910180546001600160a01b0319166001600160a01b03909216919091179055600c5490517fa701803d4ce34ec40c7ca3eb77cde444af1635bf34906dad71edf60eb712ece291610afd9185906120b6565b60405180910390a15050565b60003361069e818585610b1c8383611180565b610b2691906120ed565b6113ee565b600d8181548110610b3b57600080fd5b600091825260209091200154905081565b610b5461175a565b60008060005b600c54811015610bcd5782600c8281548110610b7857610b78612100565b9060005260206000209060030201600101541115610bbb57809150600c8181548110610ba657610ba6612100565b90600052602060002090600302016001015492505b80610bc581612116565b915050610b5a565b50600d8054610bdd9060016120ed565b81546001810183556000928352602090922090910155600c805482908110610c0757610c07612100565b60009182526020808320600d5484526009909152604090922060039091029091019080610c34838261212f565b5060018281015490820155600291820154910180546001600160a01b0319166001600160a01b03909216919091179055600c80547fee6ef7ac1534d91166ac6bbfc66762576ae51af43feef70228a9e97572baea6491839182908110610c9c57610c9c612100565b9060005260206000209060030201600001600c8481548110610cc057610cc0612100565b906000526020600020906003020160010154600c8581548110610ce557610ce5612100565b6000918252602090912060026003909202010154604051610d12949392916001600160a01b03169061220a565b60405180910390a1610d226117b4565b5050565b610d2e61175a565b610d3860006118e4565b565b6060600b80548060200260200160405190810160405280929190818152602001828054801561068657602002820191906000526020600020905b81546001600160a01b03168152600190910190602001808311610d74575050505050905090565b600b8181548110610dab57600080fd5b6000918252602090912001546001600160a01b0316905081565b60096020526000908152604090208054819061056590611f6e565b6002600a5460ff166003811115610df957610df9611f30565b14610e525760405162461bcd60e51b8152602060048201526024808201527f566f74696e6753657373696f6e73657373696f6e20686173206e6f74207374616044820152631c9d195960e21b606482015260840161071b565b3360009081526008602052604090205460ff16610eaa5760405162461bcd60e51b81526020600482015260166024820152751e5bdd48185c99481b9bdd081c9959da5cdd195c995960521b604482015260640161071b565b600c54811115610efc5760405162461bcd60e51b815260206004820152601760248201527f70726f706f73616c20646f6573206e6f74206578697374000000000000000000604482015260640161071b565b33600090815260086020526040902054610100900460ff1615610f5a5760405162461bcd60e51b81526020600482015260166024820152751e5bdd481a185d9948185b1c9958591e481d9bdd195960521b604482015260640161071b565b610f62611934565b336000908152600860205260409020805461ff001916610100178155600101819055600c805482908110610f9857610f98612100565b600091825260208220600160039092020101805491610fb683612116565b9091555050604080518281523360208201527f49c1a581f686e8b121d955a151575987b55bb36c474fff688e6d65915105c9d791015b60405180910390a150565b60606005805461060d90611f6e565b600033816110148286611180565b9050838110156110745760405162461bcd60e51b815260206004820152602560248201527f45524332303a2064656372656173656420616c6c6f77616e63652062656c6f77604482015264207a65726f60d81b606482015260840161071b565b61087a82868684036113ee565b60003361069e81858561158c565b600061109961175a565b6006546001600160a01b031633146110f35760405162461bcd60e51b815260206004820152601760248201527f596f7520646f6e27742061726520746865206f776e6572000000000000000000604482015260640161071b565b81600381111561110557611105611f30565b600a805460ff1916600183600381111561112157611121611f30565b02179055506040518281527f718f2cce815e367ee5b9bfc9a06ef418cfd9aca35c9dd940c5b462c12545c3869060200160405180910390a150335b919050565b600a5460009060ff16600381111561117b5761117b611f30565b905090565b6001600160a01b03918216600090815260026020908152604080832093909416825291909152205490565b6060600c805480602002602001604051908101604052809291908181526020016000905b828210156112b6578382906000526020600020906003020160405180606001604052908160008201805461120290611f6e565b80601f016020809104026020016040519081016040528092919081815260200182805461122e90611f6e565b801561127b5780601f106112505761010080835404028352916020019161127b565b820191906000526020600020905b81548152906001019060200180831161125e57829003601f168201915b50505091835250506001828101546020808401919091526002909301546001600160a01b0316604090920191909152918352920191016111cf565b50505050905090565b6112c761175a565b6001600160a01b03811661132c5760405162461bcd60e51b815260206004820152602660248201527f4f776e61626c653a206e6577206f776e657220697320746865207a65726f206160448201526564647265737360d01b606482015260840161071b565b611335816118e4565b50565b6060600c828154811061134d5761134d612100565b9060005260206000209060030201600001805461136990611f6e565b80601f016020809104026020016040519081016040528092919081815260200182805461139590611f6e565b80156113e25780601f106113b7576101008083540402835291602001916113e2565b820191906000526020600020905b8154815290600101906020018083116113c557829003601f168201915b50505050509050919050565b6001600160a01b0383166114505760405162461bcd60e51b8152602060048201526024808201527f45524332303a20617070726f76652066726f6d20746865207a65726f206164646044820152637265737360e01b606482015260840161071b565b6001600160a01b0382166114b15760405162461bcd60e51b815260206004820152602260248201527f45524332303a20617070726f766520746f20746865207a65726f206164647265604482015261737360f01b606482015260840161071b565b6001600160a01b0383811660008181526002602090815260408083209487168084529482529182902085905590518481527f8c5be1e5ebec7d5bd14f71427d1e84f3dd0314c0f7b2291e5b200ac8c7c3b925910160405180910390a3505050565b600061151e8484611180565b9050600019811461158657818110156115795760405162461bcd60e51b815260206004820152601d60248201527f45524332303a20696e73756666696369656e7420616c6c6f77616e6365000000604482015260640161071b565b61158684848484036113ee565b50505050565b6001600160a01b0383166115f05760405162461bcd60e51b815260206004820152602560248201527f45524332303a207472616e736665722066726f6d20746865207a65726f206164604482015264647265737360d81b606482015260840161071b565b6001600160a01b0382166116525760405162461bcd60e51b815260206004820152602360248201527f45524332303a207472616e7366657220746f20746865207a65726f206164647260448201526265737360e81b606482015260840161071b565b6001600160a01b038316600090815260016020526040902054818110156116ca5760405162461bcd60e51b815260206004820152602660248201527f45524332303a207472616e7366657220616d6f756e7420657863656564732062604482015265616c616e636560d01b606482015260840161071b565b6001600160a01b038085166000908152600160205260408082208585039055918516815290812080548492906117019084906120ed565b92505081905550826001600160a01b0316846001600160a01b03167fddf252ad1be2c89b69c2b068fc378daa952ba7f163c4a11628f55a4df523b3ef8460405161174d91815260200190565b60405180910390a3611586565b6000546001600160a01b03163314610d385760405162461bcd60e51b815260206004820181905260248201527f4f776e61626c653a2063616c6c6572206973206e6f7420746865206f776e6572604482015260640161071b565b60005b600b5481116118d757600060086000600b84815481106117d9576117d9612100565b6000918252602080832091909101546001600160a01b031683528201929092526040018120805460ff191692151592909217909155600b805460089183918590811061182757611827612100565b60009182526020808320909101546001600160a01b03168352820192909252604001812080549215156101000261ff001990931692909217909155600b805460089183918590811061187b5761187b612100565b6000918252602080832091909101546001600160a01b0316835282810193909352604091820181206001019390935580519283529082019081905290516118c491600b91611ad5565b50806118cf81612116565b9150506117b7565b50610d38600c6000611b3a565b600080546001600160a01b038381166001600160a01b0319831681178455604051919092169283917f8be0079c531659141344cd1fd0a4f28419497f9722a3daafe3b4186f6b6457e09190a35050565b33600090815260086020526040902054610100900460ff16156119995760405162461bcd60e51b815260206004820152601860248201527f766f746572732068617320616c726561647920766f7465640000000000000000604482015260640161071b565b6119a5336007546119f6565b3360009081526001602052604081205460075460408051918252602082018390529192507f297719cbe288c373364cc9752120f9b67dfcbe08d95d57a8c820454d356bb1759101610fec565b505050565b6001600160a01b038216611a4c5760405162461bcd60e51b815260206004820152601f60248201527f45524332303a206d696e7420746f20746865207a65726f206164647265737300604482015260640161071b565b8060036000828254611a5e91906120ed565b90915550506001600160a01b03821660009081526001602052604081208054839290611a8b9084906120ed565b90915550506040518181526001600160a01b038316906000907fddf252ad1be2c89b69c2b068fc378daa952ba7f163c4a11628f55a4df523b3ef9060200160405180910390a35050565b828054828255906000526020600020908101928215611b2a579160200282015b82811115611b2a57825182546001600160a01b0319166001600160a01b03909116178255602090920191600190910190611af5565b50611b36929150611b5b565b5090565b50805460008255600302906000526020600020908101906113359190611b70565b5b80821115611b365760008155600101611b5c565b80821115611b36576000611b848282611ba6565b50600060018201556002810180546001600160a01b0319169055600301611b70565b508054611bb290611f6e565b6000825580601f10611bc2575050565b601f0160209004906000526020600020908101906113359190611b5b565b600060208284031215611bf257600080fd5b5035919050565b6000815180845260005b81811015611c1f57602081850181015186830182015201611c03565b506000602082860101526020601f19601f83011685010191505092915050565b606081526000611c526060830186611bf9565b6020830194909452506001600160a01b0391909116604090910152919050565b602081526000611c856020830184611bf9565b9392505050565b80356001600160a01b038116811461115c57600080fd5b60008060408385031215611cb657600080fd5b611cbf83611c8c565b946020939093013593505050565b600060208284031215611cdf57600080fd5b611c8582611c8c565b600080600060608486031215611cfd57600080fd5b611d0684611c8c565b9250611d1460208501611c8c565b9150604084013590509250925092565b8481526001600160a01b0384166020820152608060408201819052600090611d4e90830185611bf9565b905082606083015295945050505050565b634e487b7160e01b600052604160045260246000fd5b600060208284031215611d8757600080fd5b813567ffffffffffffffff80821115611d9f57600080fd5b818401915084601f830112611db357600080fd5b813581811115611dc557611dc5611d5f565b604051601f8201601f19908116603f01168101908382118183101715611ded57611ded611d5f565b81604052828152876020848701011115611e0657600080fd5b826020860160208301376000928101602001929092525095945050505050565b6020808252825182820181905260009190848201906040850190845b81811015611e675783516001600160a01b031683529284019291840191600101611e42565b50909695505050505050565b60008060408385031215611e8657600080fd5b611e8f83611c8c565b9150611e9d60208401611c8c565b90509250929050565b60006020808301818452808551808352604092508286019150828160051b87010184880160005b83811015611f2257603f19898403018552815160608151818652611ef382870182611bf9565b838b0151878c0152928901516001600160a01b0316958901959095525094870194925090860190600101611ecd565b509098975050505050505050565b634e487b7160e01b600052602160045260246000fd5b6020810160048310611f6857634e487b7160e01b600052602160045260246000fd5b91905290565b600181811c90821680611f8257607f821691505b602082108103611fa257634e487b7160e01b600052602260045260246000fd5b50919050565b601f8211156119f157600081815260208120601f850160051c81016020861015611fcf5750805b601f850160051c820191505b81811015611fee57828155600101611fdb565b505050505050565b815167ffffffffffffffff81111561201057612010611d5f565b6120248161201e8454611f6e565b84611fa8565b602080601f83116001811461205957600084156120415750858301515b600019600386901b1c1916600185901b178555611fee565b600085815260208120601f198616915b8281101561208857888601518255948401946001909101908401612069565b50858210156120a65787850151600019600388901b60f8161c191681555b5050505050600190811b01905550565b8281526040602082015260006120cf6040830184611bf9565b949350505050565b634e487b7160e01b600052601160045260246000fd5b808201808211156106a4576106a46120d7565b634e487b7160e01b600052603260045260246000fd5b600060018201612128576121286120d7565b5060010190565b81810361213a575050565b6121448254611f6e565b67ffffffffffffffff81111561215c5761215c611d5f565b61216a8161201e8454611f6e565b6000601f82116001811461219e57600083156121865750848201545b600019600385901b1c1916600184901b178455612203565b600085815260209020601f19841690600086815260209020845b838110156121d857828601548255600195860195909101906020016121b8565b50858310156121f65781850154600019600388901b60f8161c191681555b50505060018360011b0184555b5050505050565b848152600060206080818401526000865461222481611f6e565b80608087015260a060018084166000811461224657600181146122605761228e565b60ff1985168984015283151560051b89018301955061228e565b8b6000528660002060005b858110156122865781548b820186015290830190880161226b565b8a0184019650505b5050505050604084018690526001600160a01b038516606085015291506122b29050565b9594505050505056fea2646970667358221220fa0918c13fcaf5957dba7404e32e72c6d5d5edde8dce7b6840e8195316252ff764736f6c63430008100033",
  "linkReferences": {},
  "deployedLinkReferences": {}
}